:020000040000FA
:100C000028EF28F0659C120021EF2CF0BB68040E41
:100C1000BA6E12009DEF2FF05CEF2CF0D9CFE5FFFC
:100C2000E1CFD9FF00C0E5FF01C0E5FF02C0E5FF4D
:100C300003C0E5FF04C0E5FF05C0E5FF95EC2BF020
:100C400007014F6B506B040E016ED50E006E800EC7
:100C5000026E000E056E350E046E920E036E000ECF
:100C6000E56E070EE56E0550E56E0450E56E035027
:100C7000E56E0250E56E0150E56E0050E56EB8EC91
:100C800023F0006EF3CF01F0080EE12600500110B2
:100C9000D8A4D8D0040E016ED50E006E800E026E60
:100CA000000E056E350E046EA80E036E0550E56E3F
:100CB0000450E56E0350E56E0250E56E0150E56E9E
:100CC0000050E56E46EC1BF00701466FF3CF47F787
:100CD000F4CF48F7060EE1260701465147114811A7
:100CE000D8B41EEF0EF0D880070150AFD890D8B01E
:100CF00088D05051800F800F02E1030E4F5DD8B0B5
:100D000080D0FA6AFB6A07014F35FA36E834FA36C2
:100D1000FC0B220FE56E0D0EFA22000EFB22E450B2
:100D2000F96E97EF06F098EF06F0A8EF06F069D09D
:100D300007014851E56E4751E56E4651E56E3EECC0
:100D40001CF00701516FF3CF52F7030EE12659D083
:100D5000000E026E350E016E9A0E006E000EE56EEC
:100D6000050EE56E0250E56E0150E56E0050E56E31
:100D700007014851E56E4751E56E4651E56EB8EC06
:100D800023F0006EF3CF01F0080EE12600500110B1
:100D90000CE107015151006E010EE56E0050E56E49
:100DA00018EC19F0E652E6522CD0000E026E350E09
:100DB000016EA00E006E000EE56E060EE56E02508E
:100DC000E56E0150E56E0050E56E07014851E56E95
:100DD0004751E56E4651E56EB8EC23F0006EF3CF57
:100DE00001F0080EE126005001100BE107015151FE
:100DF000006E000EE56E0050E56E18EC19F0E6523C
:100E0000E65207014F3F01D0502B000E026E350E07
:100E1000016EAA0E006E0250E56E0150E56E0050A4
:100E2000E56E000EE56E000EE56E000EE56E46EC1A
:100E30001BF00701466FF3CF47F7F4CF48F7060ED4
:100E4000E1264AD7040E016ED50E006E800E026EAA
:100E5000000E056E350E046EAC0E036E000EE56ED0
:100E60000C0EE56E0550E56E0450E56E0350E56E20
:100E70000250E56E0150E56E0050E56EB8EC23F0CF
:100E8000006EF3CF01F0080EE12600500110D8A447
:100E9000D8D0040E016ED50E006E800E026E000ECC
:100EA000056E350E046EA80E036E0550E56E0450F7
:100EB000E56E0350E56E0250E56E0150E56E0050A0
:100EC000E56E46EC1BF00701466FF3CF47F7F4CF12
:100ED00048F7060EE1260701465147114811D8B4DC
:100EE0001EEF0EF0D880070150AFD890D8B088D050
:100EF0005051800F800F02E1030E4F5DD8B080D0BB
:100F0000FA6AFB6A07014F35FA36E834FA36FC0B09
:100F1000200FE56E0F0EFA22000EFB22E450F96E50
:100F200096EF07F097EF07F0A7EF07F069D00701FA
:100F30004851E56E4751E56E4651E56E3EEC1CF0BA
:100F40000701516FF3CF52F7030EE12659D0000E7F
:100F5000026E350E016EBA0E006E000EE56E040EC6
:100F6000E56E0250E56E0150E56E0050E56E07013A
:100F70004851E56E4751E56E4651E56EB8EC23F0F9
:100F8000006EF3CF01F0080EE126005001100CE1D5
:100F900007015151006E010EE56E0050E56EE4EC64
:100FA00017F0E652E6522CD0000E026E350E016E9E
:100FB000C00E006E000EE56E030EE56E0250E56E8B
:100FC0000150E56E0050E56E07014851E56E47514E
:100FD000E56E4651E56EB8EC23F0006EF3CF01F0FC
:100FE000080EE126005001100BE107015151006E7F
:100FF000000EE56E0050E56EE4EC17F0E652E652A6
:1010000007014F3F01D0502B000E026E350E016ECE
:10101000AA0E006E0250E56E0150E56E0050E56EBE
:10102000000EE56E000EE56E000EE56E46EC1BF060
:101030000701466FF3CF47F7F4CF48F7060EE126D6
:101040004AD7040E016ED50E006E800E026E000EA1
:10105000056E350E046EC40E036E000EE56E0B0EAB
:10106000E56E0550E56E0450E56E0350E56E0250E6
:10107000E56E0150E56E0050E56EB8EC23F0006EB1
:10108000F3CF01F0080EE12600500110D8A49AD049
:10109000040E016ED50E006E800E026E000E056EFF
:1010A000350E046EA80E036E0550E56E0450E56E15
:1010B0000350E56E0250E56E0150E56E0050E56E9E
:1010C00046EC1BF00701466FF3CF47F7F4CF48F724
:1010D000060EE1260701465147114811D8B41EEF0C
:1010E0000EF0D880070150AFD890D8B04AD05051F8
:1010F000800F800F02E1030E4F5DD8B042D0FA6A34
:10110000FB6A07014F35FA36E834FA36FC0B1E0F3E
:10111000E56E110EFA22000EFB22E450F96E95EFF7
:1011200008F096EF08F0A6EF08F02BD00701485121
:10113000E56E4751E56E4651E56E3EEC1CF0070149
:10114000516FF3CF52F7030EE1261BD00701515127
:10115000006E07014851E56E4751E56E4651E56E58
:101160003EEC1CF0016EF3CF02F0030EE1260250BC
:10117000E56E0150E56E0050E56EB5EC2AF0030E09
:10118000E12607014F3F01D0502B000E026E350EB5
:10119000016EAA0E006E0250E56E0150E56E005021
:1011A000E56E000EE56E000EE56E000EE56E46EC97
:1011B0001BF00701466FF3CF47F7F4CF48F7060E51
:1011C000E12688D7040E016ED50E006E800E026EE9
:1011D000000E056E350E046ED00E036E000EE56E29
:1011E0000B0EE56E0550E56E0450E56E0350E56E9E
:1011F0000250E56E0150E56E0050E56EB8EC23F04C
:10120000006EF3CF01F0080EE12600500110D8A4C3
:101210007FD0040E016ED50E006E800E026E000EA1
:10122000056E350E046EA80E036E0550E56E045073
:10123000E56E0350E56E0250E56E0150E56E00501C
:10124000E56E46EC1BF00701466FF3CF47F7F4CF8E
:1012500048F7060EE1260701465147114811D8B458
:101260001EEF0EF007014F5102E1505130E007012F
:101270004F51010A02E1505101E029D007014851C4
:10128000E56E4751E56E4651E56E3EEC1CF0006E92
:10129000F3CF01F0030EE1260050E56E07EC1EF0DF
:1012A000006EE652016A000E046E350E036EDC0E0F
:1012B000026E0150E56E0050E56E0450E56E03507D
:1012C000E56E0250E56EDBEC2BF0050EE126070122
:1012D0004F3F01D0502B000E026E350E016EE00E16
:1012E000006E0250E56E0150E56E0050E56E000E96
:1012F000E56E000EE56E000EE56E46EC1BF0070194
:10130000466FF3CF47F7F4CF48F7060EE126A3D791
:10131000040E016ED50E006E800E026E000E056E7C
:10132000350E046EE20E036E000EE56E0A0EE56EDB
:101330000550E56E0450E56E0350E56E0250E56E13
:101340000150E56E0050E56EB8EC23F0006EF3CF6F
:1013500001F0080EE12600500110D8A480D0040E40
:10136000016ED50E006E800E026E000E056E350EFB
:10137000046EA80E036E0550E56E0450E56E035032
:10138000E56E0250E56E0150E56E0050E56E46ECEC
:101390001BF00701466FF3CF47F7F4CF48F7060E6F
:1013A000E1260701465147114811D8B41EEF0EF04F
:1013B00007014F5102E1505131E007014F51010A3D
:1013C00002E1505101E02AD007014851E56E475132
:1013D000E56E4651E56E3EEC1CF0006EF3CF01F079
:1013E000030EE1260050E56E67EC2AF0006EF3CFA5
:1013F00001F0E652000E046E350E036EDC0E026E36
:101400000150E56E0050E56E0450E56E0350E56E48
:101410000250E56EDBEC2BF0050EE12607014F3F95
:1014200001D0502B000E026E350E016EE00E006EE4
:101430000250E56E0150E56E0050E56E000EE56E5F
:10144000000EE56E000EE56E46EC1BF00701466FE0
:10145000F3CF47F7F4CF48F7060EE126A2D7040EE4
:10146000016ED50E006E800E026E000E056E350EFA
:10147000046EEE0E036E000EE56E0A0EE56E05506C
:10148000E56E0450E56E0350E56E0250E56E0150C6
:10149000E56E0050E56EB8EC23F0006EF3CF01F07E
:1014A000080EE12600500110D8A47FD0040E016E72
:1014B000D50E006E800E026E000E056E350E046EA7
:1014C000A80E036E0550E56E0450E56E0350E56E00
:1014D0000250E56E0150E56E0050E56E46EC1BF0E3
:1014E0000701466FF3CF47F7F4CF48F7060EE12622
:1014F0000701465147114811D8B41EEF0EF00701FD
:101500004F5102E1505130E007014F51010A02E111
:10151000505101E029D007014851E56E4751E56E71
:101520004651E56E3EEC1CF0006EF3CF01F0030E69
:10153000E1260050E56E82EC2FF0006EE652016A63
:10154000000E046E350E036EDC0E026E0150E56E69
:101550000050E56E0450E56E0350E56E0250E56EF6
:10156000DBEC2BF0050EE12607014F3F01D0502B9D
:10157000000E026E350E016EE00E006E0250E56E3A
:101580000150E56E0050E56E000EE56E000EE56E52
:10159000000EE56E46EC1BF00701466FF3CF47F7F0
:1015A000F4CF48F7060EE126A3D7040E016ED50E40
:1015B000006E800E026E000E056E350E046EFA0E81
:1015C000036E000EE56E0B0EE56E0550E56E0450E1
:1015D000E56E0350E56E0250E56E0150E56E005079
:1015E000E56EB8EC23F0006EF3CF01F0080EE126B3
:1015F00000500110D8A4B5D0040E016ED50E006EB7
:10160000800E026E000E056E350E046EA80E036E7F
:101610000550E56E0450E56E0350E56E0250E56E30
:101620000150E56E0050E56E46EC1BF00701466F79
:10163000F3CF47F7F4CF48F7060EE12607014651EE
:1016400047114811D8B41EEF0EF0D880070150AFF3
:10165000D890D8B065D05051800F800F02E1030EB2
:101660004F5DD8B05DD0FA6AFB6A07014F35FA3694
:10167000E834FA36FC0B860FE56E160EFA22000EE1
:10168000FB22E450F96E49EF0BF04AEF0BF05AEFF2
:101690000BF046D007014851E56E4751E56E4651C3
:1016A000E56E3EEC1CF00701516FF3CF52F7030ECD
:1016B000E12636D0000E026E350E016EE00E006E91
:1016C0000250E56E0150E56E0050E56E070148518D
:1016D000E56E4751E56E4651E56E46EC1BF007019D
:1016E000466FF3CF47F7F4CF48F7060EE126070120
:1016F0005151006E07014851E56E4751E56E465164
:10170000E56E3EEC1CF0016EF3CF02F0030EE12615
:101710000150E56E0050E56E29EC2EF0E652E652DF
:1017200007014F3F01D0502B000E026E350E016EA7
:10173000AA0E006E0250E56E0150E56E0050E56E97
:10174000000EE56E000EE56E000EE56E46EC1BF039
:101750000701466FF3CF47F7F4CF48F7060EE126AF
:101760006DD7040E016ED50E006E800E026E000E57
:10177000056E360E046E060E036E000EE56E050E47
:10178000E56E0550E56E0450E56E0350E56E0250BF
:10179000E56E0150E56E0050E56EB8EC23F0006E8A
:1017A000F3CF01F0080EE12600500110D8A46CD050
:1017B000040E016ED50E006E800E026E000E056ED8
:1017C000350E046EA80E036E0550E56E0450E56EEE
:1017D0000350E56E0250E56E0150E56E0050E56E77
:1017E00046EC1BF00701466FF3CF47F7F4CF48F7FD
:1017F000060EE1260701465147114811D8B41EEFE5
:101800000EF007014F5102E150511DE007014F5109
:10181000010A02E1505101E016D007014851E56E7E
:101820004751E56E4651E56E3EEC1CF0006EF3CF7D
:1018300001F0030EE1260150E56E0050E56E72ECFA
:1018400027F0E652E65207014F3F01D0502B000E21
:10185000026E350E016EE00E006E0250E56E015014
:10186000E56E0050E56E000EE56E000EE56E000EB2
:10187000E56E46EC1BF00701466FF3CF47F7F4CF58
:1018800048F7060EE126B6D7040E016ED50E006E9F
:10189000800E026E000E056E360E046E0C0E036E88
:1018A000000EE56E110EE56E0550E56E0450E56E16
:1018B0000350E56E0250E56E0150E56E0050E56E96
:1018C000B8EC23F0006EF3CF01F0080EE1260050D3
:1018D0000110D8A47BD0040E016ED50E006E800ED0
:1018E000026E000E056E350E046EA80E036E0550D6
:1018F000E56E0450E56E0350E56E0250E56E015052
:10190000E56E0050E56E46EC1BF00701466FF3CF25
:1019100047F7F4CF48F7060EE12607014651471175
:101920004811D8B48BD107014F5102E150512DE03D
:1019300007014F51010A02E1505101E026D0070191
:101940004851E56E4751E56E4651E56E3EEC1CF0A0
:10195000006EF3CF01F0030EE1260150E56E00505A
:10196000E56EBFEC2DF0E652E652000E026E360E2A
:10197000016E1E0E006E0250E56E0150E56E0050C5
:10198000E56EDBEC2BF0030EE12607014F3F01D0A3
:10199000502B000E026E350E016EE00E006E0250EE
:1019A000E56E0150E56E0050E56E000EE56E000E2E
:1019B000E56E000EE56E46EC1BF00701466FF3CFB7
:1019C00047F7F4CF48F7060EE126A7D7040E016EBD
:1019D000D50E006E800E026E000E056E360E046E81
:1019E000240E036E0550E56E0450E56E0350E56E5F
:1019F0000250E56E0150E56E0050E56E40EC24F0BB
:101A0000006EF3CF01F0060EE1260050011026E132
:101A10000701536B546B07015351006E000EE56EC6
:101A20000050E56E18EC19F0E652E65207015351EA
:101A3000006E000EE56E0050E56EE4EC17F0E65225
:101A4000E6520701533F01D0542B07015451800F38
:101A5000800F02E1160E535DDEE3F0D0040E016E3E
:101A6000D50E006E800E026E000E056E360E046EF0
:101A70002E0E036E0550E56E0450E56E0350E56EC4
:101A80000250E56E0150E56E0050E56E40EC24F02A
:101A9000006EF3CF01F0060EE126005001101BE1AD
:101AA0000701536B546B07015351006E010EE56E35
:101AB0000050E56E18EC19F0E652E6520701533F6C
:101AC00001D0542B07015451800F800F02E1160EF4
:101AD000535DE9E3B3D0040E016ED50E006E800EA7
:101AE000026E000E056E360E046E380E036E055043
:101AF000E56E0450E56E0350E56E0250E56E015050
:101B0000E56E0050E56E40EC24F0006EF3CF01F07E
:101B1000060EE1260050011026E10701536B546BBD
:101B200007015351006E000EE56E0050E56E18EC93
:101B300019F0E652E65207015351006E010EE56EB0
:101B40000050E56EE4EC17F0E652E6520701533F11
:101B500001D0542B07015451800F800F02E1160E63
:101B6000535DDEE36BD0040E016ED50E006E800E69
:101B7000026E000E056E360E046E400E036E0550AA
:101B8000E56E0450E56E0350E56E0250E56E0150BF
:101B9000E56E0050E56E40EC24F0006EF3CF01F0EE
:101BA000060EE1260050011026E10701536B546B2D
:101BB00007015351006E000EE56E0050E56E18EC03
:101BC00019F0E652E65207015351006E000EE56E21
:101BD0000050E56EE4EC17F0E652E6520701533F81
:101BE00001D0542B07015451800F800F02E1160ED3
:101BF000535DDEE323D0040E016ED50E006E800E21
:101C0000026E000E056E360E046E480E036E055011
:101C1000E56E0450E56E0350E56E0250E56E01502E
:101C2000E56E0050E56E40EC24F0006EF3CF01F05D
:101C3000060EE1260050011001E1FF00E4CF05F09F
:101C4000E4CF04F0E4CF03F0E4CF02F0E4CF01F0FE
:101C5000E4CF00F0E4CFD9FF1200D9CFE5FFE1CF08
:101C6000D9FF00C0E5FF01C0E5FF02C0E5FF03C0EA
:101C7000E5FF04C0E5FF05C0E5FF06C0E5FF07C0BE
:101C8000E5FF08C0E5FF09C0E5FF0AC0E5FF0BC09E
:101C9000E5FF0CC0E5FF0DC0E5FF0EC0E5FF0FC07E
:101CA000E5FF10C0E5FF11C0E5FF12C0E5FF13C05E
:101CB000E5FF14C0E5FF15C0E5FF16C0E5FF17C03E
:101CC000E5FF18C0E5FF19C0E5FF020EDBCF00F00D
:101CD000030EDBCF01F0040EDBCF02F0050EDBCFED
:101CE00003F0060EDBCF04F0070EDBCF05F0080E85
:101CF000DBCF06F0090EDBCF07F00A0EDBCF08F0D2
:101D0000096A020E0A6E03C0E9FF04C0F3FF055022
:101D100023EC2FF00B6E0B50D8B400EF13F00C6ACD
:101D20000B50250A02E0E7EF12F00B6A0D6A032A56
:101D300002E3044A052A03C0E9FF04C0F3FF05508B
:101D400023EC2FF00E6E0E50D8B400EF13F00E50AF
:101D5000250A02E1E7EF12F00E502D0A06E1032AF0
:101D600002E3044A052A010E0B6E03C00EF004C004
:101D70000FF005C010F00EC0E9FF0FC0F3FF1050C8
:101D800023EC2FF0300A06E10E2A02E30F4A102A54
:101D90000B82F1D70EC0E9FF0FC0F3FF105023EC08
:101DA0002FF0116E300E115C13E33A0E115C10E24D
:101DB0000D500A0DF3CF0DF0D00E11260D50126EFE
:101DC000115012240D6E0E2A02E30F4A102AE2D798
:101DD0000EC003F00FC004F010C005F00EC0E9FF04
:101DE0000FC0F3FF105023EC2FF02E0A34E10E50F9
:101DF000010F036E000E0F20046E000E1020056E02
:101E00000A6A03C00EF004C00FF005C010F00EC047
:101E1000E9FF0FC0F3FF105023EC2FF0116E300ECE
:101E2000115C13E33A0E115C10E20A500A0DF3CF75
:101E30000AF0D00E11260A50126E115012240A6EAA
:101E40000E2A02E30F4A102AE2D70EC003F00FC099
:101E500004F010C005F003C0E9FF04C0F3FF055013
:101E600023EC2FF00E6E660A01E040D00650040FFE
:101E70000F6E000E0720106E000E0820116E0FC0AE
:101E800006F010C007F011C008F0FC0E0F26FF0E80
:101E9000102211220FC0E9FF10C0F3FF115009EC0E
:101EA0002EF00F6EF3CF10F0F4CF11F0E9CF12F057
:101EB0000A50E56EE56A0B50E56E0D50E56E125066
:101EC000E56E1150E56E1050E56E0F50E56E025054
:101ED000E56E0150E56E0050E56E50EC13F00F6EAC
:101EE0000B0EE1260F500926FAEF12F00E50730A7E
:101EF00001E052D00650030F0F6E000E0720106E47
:101F0000000E0820116E0FC006F010C007F011C0BF
:101F100008F0FD0E0F26FF0E102211220FC0E9FF60
:101F200010C0F3FF115048EC2EF00F6EF3CF10F0FD
:101F3000F4CF11F00FC012F010C013F011C014F064
:101F40001010111007E012C00FF013C010F014C0F1
:101F500011F006D0000E116E350E106E420E0F6E8F
:101F60000B50E56E0D50E56E1150E56E1050E56EAC
:101F70000F50E56E0250E56E0150E56E0050E56EC3
:101F8000E1EC1EF00F6E080EE1260950106E0F50A6
:101F90001024096EFAEF12F00E506C0A06E1032AC3
:101FA00002E3044A052A010E0C6E03C0E9FF04C0D7
:101FB000F3FF055023EC2FF00E6E750A01E06CD094
:101FC0000C5023E00650040F0F6E000E0720106E19
:101FD000000E0820116E0FC006F010C007F011C0EF
:101FE00008F0FC0E0F26FF0E102211220FC0E9FF91
:101FF00010C0F3FF115009EC2EF00F6EF3CF10F06C
:10200000F4CF11F0E9CF12F024D00650020F136E76
:10201000000E0720146E000E0820156E13C006F087
:1020200014C007F015C008F0FE0E1326FF0E142290
:10203000152213C0E9FF14C0F3FF1550C0EC2EF0B9
:10204000136EF3CF14F013C00FF014C010F0116A28
:10205000126A610EE56EE56A0B50E56E0D50E56E95
:10206000E56A0A0EE56E0C50E56E1250E56E1150F1
:10207000E56E1050E56E0F50E56E0250E56E0150B2
:10208000E56E0050E56E30EC16F0136E0E0EE12694
:1020900013500926FAEF12F00E50640A04E00E50B5
:1020A000690A01E075D00C5023E00650040F136E4E
:1020B000000E0720146E000E0820156E13C006F0E7
:1020C00014C007F015C008F0FC0E1326FF0E1422F2
:1020D000152213C0E9FF14C0F3FF155009EC2EF0D0
:1020E000136EF3CF14F0F4CF15F0E9CF16F024D02F
:1020F0000650020F176E000E0720186E000E082003
:10210000196E17C006F018C007F019C008F0FE0ECF
:102110001726FF0E1822192217C0E9FF18C0F3FF77
:102120001950C0EC2EF0176EF3CF18F017C013F053
:1021300018C014F0156A166A13C00FF014C010F01E
:1021400015C011F016C012F0610EE56EE56A0B5075
:10215000E56E0D50E56E010EE56E0A0EE56E0C5053
:10216000E56E1250E56E1150E56E1050E56E0F50A1
:10217000E56E0250E56E0150E56E0050E56E30EC04
:1021800016F0136E0E0EE12613500926FAEF12F028
:102190000E50780A04E00E50700A01E073D00C5023
:1021A00023E00650040F136E000E0720146E000E7D
:1021B0000820156E13C006F014C007F015C008F013
:1021C000FC0E1326FF0E1422152213C0E9FF14C0C3
:1021D000F3FF155009EC2EF0136EF3CF14F0F4CF8B
:1021E00015F0E9CF16F024D00650020F176E000E3E
:1021F0000720186E000E0820196E17C006F018C0D0
:1022000007F019C008F0FE0E1726FF0E182219223B
:1022100017C0E9FF18C0F3FF1950C0EC2EF0176E7D
:10222000F3CF18F017C013F018C014F0156A166A2F
:1022300013C00FF014C010F015C011F016C012F04A
:10224000610EE56EE56A0B50E56E0D50E56EE56AD0
:10225000100EE56E0C50E56E1250E56E1150E56EF5
:102260001050E56E0F50E56E0250E56E0150E56EC0
:102270000050E56E30EC16F0136E0E0EE126135092
:102280000926B8D10E50580A04E00E50500A01E059
:1022900073D00C5023E00650040F136E000E07207D
:1022A000146E000E0820156E13C006F014C007F05F
:1022B00015C008F0FC0E1326FF0E1422152213C0C1
:1022C000E9FF14C0F3FF155009EC2EF0136EF3CFA5
:1022D00014F0F4CF15F0E9CF16F024D00650020F19
:1022E000176E000E0720186E000E0820196E17C01A
:1022F00006F018C007F019C008F0FE0E1726FF0EF2
:102300001822192217C0E9FF18C0F3FF1950C0ECBA
:102310002EF0176EF3CF18F017C013F018C014F09A
:10232000156A166A13C00FF014C010F015C011F032
:1023300016C012F0410EE56EE56A0B50E56E0D50C9
:10234000E56EE56A100EE56E0C50E56E1250E56E16
:102350001150E56E1050E56E0F50E56E0250E56EBF
:102360000150E56E0050E56E30EC16F0136E0E0E67
:10237000E126135009263ED10E50620A01E073D0C7
:102380000C5023E00650040F136E000E0720146E4D
:10239000000E0820156E13C006F014C007F015C01B
:1023A00008F0FC0E1326FF0E1422152213C0E9FFBD
:1023B00014C0F3FF155009EC2EF0136EF3CF14F098
:1023C000F4CF15F0E9CF16F024D00650020F176EA7
:1023D000000E0720186E000E0820196E17C006F0B8
:1023E00018C007F019C008F0FE0E1726FF0E1822BD
:1023F000192217C0E9FF18C0F3FF1950C0EC2EF0E6
:10240000176EF3CF18F017C013F018C014F0156A48
:10241000166A13C00FF014C010F015C011F016C0EA
:1024200012F0610EE56EE56A0B50E56E0D50E56E3B
:10243000E56A020EE56E0C50E56E1250E56E115025
:10244000E56E1050E56E0F50E56E0250E56E0150DE
:10245000E56E0050E56E30EC16F0136E0E0EE126C0
:1024600013500926C7D00E506F0A01E073D00C50EC
:1024700023E00650040F136E000E0720146E000EAA
:102480000820156E13C006F014C007F015C008F040
:10249000FC0E1326FF0E1422152213C0E9FF14C0F0
:1024A000F3FF155009EC2EF0136EF3CF14F0F4CFB8
:1024B00015F0E9CF16F024D00650020F176E000E6B
:1024C0000720186E000E0820196E17C006F018C0FD
:1024D00007F019C008F0FE0E1726FF0E1822192269
:1024E00017C0E9FF18C0F3FF1950C0EC2EF0176EAB
:1024F000F3CF18F017C013F018C014F0156A166A5D
:1025000013C00FF014C010F015C011F016C012F077
:10251000610EE56EE56A0B50E56E0D50E56EE56AFD
:10252000080EE56E0C50E56E1250E56E1150E56E2A
:102530001050E56E0F50E56E0250E56E0150E56EED
:102540000050E56E30EC16F00C6E0E0EE1260C50CD
:10255000092650D00E50630A01E04CD00650020FFD
:102560000C6E000E07200E6E000E08200F6E0CC0C1
:1025700006F00EC007F00FC008F0FE0E0C26FF0E8E
:102580000E220F220CC0E9FF0EC0F3FF0F50C0EC6B
:102590002EF007014D6F4E6B0B50E56E0D50E56E42
:1025A000800EE56E070EE56E4D0EE56E0250E56E8F
:1025B0000150E56E0050E56EE1EC1EF00B6E080E6A
:1025C000E12609500C6E0B500C24096E13D003C089
:1025D000E9FF04C0F3FF055023EC2FF0E56E025035
:1025E000E56E0150E56E0050E56E48EC25F0040EF6
:1025F000E126092A032A02E3044A052A83EF0EF0A2
:1026000000500110021014E000C0E9FF01C0F3FF08
:10261000025048EC2EF0006EF3CF01F0F4CF02F040
:10262000E56A00C0E9FF01C0F3FF0250B4EC2FF0EF
:102630000950E4CF19F0E4CF18F0E4CF17F0E4CF5D
:1026400016F0E4CF15F0E4CF14F0E4CF13F0E4CFAC
:1026500012F0E4CF11F0E4CF10F0E4CF0FF0E4CFAC
:102660000EF0E4CF0DF0E4CF0CF0E4CF0BF0E4CFAC
:102670000AF0E4CF09F0E4CF08F0E4CF07F0E4CFAC
:1026800006F0E4CF05F0E4CF04F0E4CF03F0E4CFAC
:1026900002F0E4CF01F0E4CF00F0E4CFD9FF120064
:1026A000D9CFE5FFE1CFD9FF00C0E5FF01C0E5FFCD
:1026B00002C0E5FF03C0E5FF04C0E5FF05C0E5FF7C
:1026C00006C0E5FF07C0E5FF08C0E5FF09C0E5FF5C
:1026D0000AC0E5FF0BC0E5FF0CC0E5FF0DC0E5FF3C
:1026E0000EC0E5FF0FC0E5FF10C0E5FF11C0E5FF1C
:1026F00012C0E5FF13C0E5FF14C0E5FF15C0E5FFFC
:1027000016C0E5FF17C0E5FF18C0E5FF19C0E5FFDB
:102710001AC0E5FF1BC0E5FF1CC0E5FF1DC0E5FFBB
:102720001EC0E5FF1FC0E5FF20C0E5FF020EDBCFA6
:1027300000F0030EDBCF01F0040EDBCF02F0050E3C
:10274000DBCF03F0060EDBCF04F0070EDBCF05F086
:10275000080EDBCF06F0090EDBCF07F00A0EDBCF49
:1027600008F00C0EDBCF09F00A6A0B6A0C6A0D6ADE
:102770000E6A0F6A106A116A070E136E0C0E126E43
:10278000800E146E070E166E180E156E800E176EE4
:10279000186A0B0E196E03500701336F0450346F23
:1027A0000550356F0650366FD88036AFD89023E38A
:1027B000075012E008A210D02D0EE56E0250E56E13
:1027C0000150E56E0050E56E48EC25F0040EE12660
:1027D000010E186E07060FD02D0EE56E12C0E9FF30
:1027E00013C0F3FF1450B4EC2FF0122A02E3134A83
:1027F000142A0A0E196E070135353635036E046A40
:10280000810E03263351046E3451056E7F0E35154B
:10281000066E1A6A068E0350800F610F21E32B0E9D
:1028200007010C6F690E0D6F6E0E0E6F660E0F6F47
:10283000106B0850E56E0750E56E800EE56E070ED2
:10284000E56E0C0EE56E0250E56E0150E56E00502F
:10285000E56EE1EC1EF01B6E080EE1261B50BBD1AD
:102860000350800F970F09E20A6A0B6A0C6A0D6A1F
:102870000E6A0F6A106A116A9DD00350800F690FAB
:1028800025E303C01BF01C6A03BE1C68E90E1B266F
:10289000D8A01C0604C00AF005C00BF006C00CF05E
:1028A0001AC00DF01B5011E009E6E86CD8900A360A
:1028B0000B360C360D36010FFAE37CD0D8900D3272
:1028C0000C320B320A32010FFAE374D0D88003AE17
:1028D000D890D8B04AD003C01BF01C6A03BE1C6855
:1028E0001B5017081D6E000E1C5404C00AF005C0D2
:1028F0000BF006C00CF01AC00DF01D5011E009E6F7
:10290000E86CD8900D320C320B320A32010FFAE328
:1029100007D0D8900A360B360C360D36010FFAE385
:102920001B4A1C2A04C01DF005C01EF006C01FF083
:102930001AC020F01B5011E009E6E86CD8901D3653
:102940001E361F362036010FFAE307D0D89020320A
:102950001F321E321D32010FFAE31D500E6E1E5043
:102960000F6E1F50106E116A25D01A6A1B6A03BEC3
:102970001B68034A1B2A1B1E036CD8B41B2A04C005
:102980000EF005C00FF006C010F01AC011F0035091
:1029900011E009E6E86CD890113210320F320E3295
:1029A000010FFAE307D0D8900E360F3610361136E5
:1029B000010FFAE30A500B100C100D100FE1300E4E
:1029C000E56E12C0E9FF13C0F3FF1450B4EC2FF012
:1029D000122A02E3134A142A190678D015C003F00C
:1029E00016C004F017C005F0066A19C015F00A50A9
:1029F0000B100C100D10D8B43CD0E56AE56AE56AFE
:102A00000A0EE56E0D50E56E0C50E56E0B50E56E4E
:102A10000A50E56EB3EC1FF0166E080EE126300E7C
:102A2000162616C0E5FF03C0E9FF04C0F3FF0550FA
:102A3000B4EC2FF0032A02E3044A052AE56AE56AAA
:102A4000E56A0A0EE56E0D50E56E0C50E56E0B5012
:102A5000E56E0A50E56E86EC21F00A6EF3CF0BF0BE
:102A6000F4CF0CF0E9CF0DF0080EE126062A15068A
:102A7000BED715C019F012C00AF013C00BF014C075
:102A80000CF006C00DF006060D501AE0FF0E0326EE
:102A90000422052203C0E9FF04C0F3FF055023EC24
:102AA0002FF00D6E0DC0E5FF0AC0E9FF0BC0F3FF6C
:102AB0000C50B4EC2FF00A2AE4E30B4A0C2AE1D7BD
:102AC0000AC012F00BC013F00CC014F0070E095C22
:102AD00002E3060E096E0950195CD8A019C009F06E
:102AE000010E095CD8A057D02E0EE56E12C0E9FF8A
:102AF00013C0F3FF1450B4EC2FF0122A02E3134A70
:102B0000142A12C003F013C004F014C005F0066AC2
:102B10000950065C3AE20E500E240A6E0F340B6E1A
:102B200010340C6E11340D6E0A500A260B360C361A
:102B30000D360A500A260B360C360D360E500E2472
:102B4000156E0F34166E1034176E1134196E155041
:102B50000A240E6E16500B200F6E17500C20106EAC
:102B600019500D200A6E300E0A260AC0E5FF03C078
:102B7000E9FF04C0F3FF0550B4EC2FF0032A02E391
:102B8000044A052A116A062AC3D703C012F004C0FA
:102B900013F005C014F0E56A12C0E9FF13C0F3FF9B
:102BA0001450B4EC2FF00850E56E0750E56E800E1F
:102BB000E56E070EE56E0C0EE56E0250E56E0150F7
:102BC000E56E0050E56EE1EC1EF0006E080EE126A9
:102BD000185000260050E4CF20F0E4CF1FF0E4CFDF
:102BE0001EF0E4CF1DF0E4CF1CF0E4CF1BF0E4CFE7
:102BF0001AF0E4CF19F0E4CF18F0E4CF17F0E4CFE7
:102C000016F0E4CF15F0E4CF14F0E4CF13F0E4CFE6
:102C100012F0E4CF11F0E4CF10F0E4CF0FF0E4CFE6
:102C20000EF0E4CF0DF0E4CF0CF0E4CF0BF0E4CFE6
:102C30000AF0E4CF09F0E4CF08F0E4CF07F0E4CFE6
:102C400006F0E4CF05F0E4CF04F0E4CF03F0E4CFE6
:102C500002F0E4CF01F0E4CF00F0E4CFD9FF12009E
:102C6000D9CFE5FFE1CFD9FF00C0E5FF01C0E5FF07
:102C700002C0E5FF03C0E5FF04C0E5FF05C0E5FFB6
:102C800006C0E5FF07C0E5FF08C0E5FF09C0E5FF96
:102C90000AC0E5FF0BC0E5FF0CC0E5FF0DC0E5FF76
:102CA0000EC0E5FF0FC0E5FF10C0E5FF11C0E5FF56
:102CB00012C0E5FF13C0E5FF14C0E5FF15C0E5FF36
:102CC00016C0E5FF17C0E5FF18C0E5FF19C0E5FF16
:102CD0001AC0E5FF1BC0E5FF020EDBCF00F0030EBC
:102CE000DBCF01F0040EDBCF02F0050EDBCF03F0EB
:102CF000060EDBCF04F0070EDBCF05F0080EDBCFAE
:102D000006F0090EDBCF07F00A0EDBCF08F00B0E42
:102D1000DBCF09F00C0EDBCF0AF00D0EDBCF0BF092
:102D20000F0EDBCF0CF00D6A0E6A03C00FF004C06B
:102D300010F005C011F006C012F003500410051089
:102D400006101BE1300E0701006F016B0B50E56EA2
:102D50000A50E56E800EE56E070EE56E000EE56E1C
:102D60000250E56E0150E56E0050E56EE1EC1EF09C
:102D7000136E080EE1261350ECD0095036E00850CF
:102D80000A0A33E107501CE00350096E0450136E29
:102D90000550146E0650156ED88015AED89010E30D
:102DA000010E0D6E151C126E141C116E131C106E8C
:102DB000091C0F6E0F2A04E1102A02E1114A122A9F
:102DC000075013E1D88004AED8900FE3010E0D6ECA
:102DD000041E036CD8B4042A03C00FF004C010F022
:102DE000E86A04BEFF0E116E126E070E046E0B0E23
:102DF000036E800E056EE56A03C0E9FF04C0F3FFB1
:102E0000B4EC2FF003C006F004C007F005C009F0D1
:102E10000F50101011101210D8B45AD008C013F06F
:102E2000146A156A166AE56AE56AE56A1350E56E82
:102E30001250E56E1150E56E1050E56E0F50E56EC4
:102E4000B3EC1FF0176EF3CF18F0F4CF19F0E9CF01
:102E50001AF0080EE126000E1A5C08E1000E195C5B
:102E600005E1000E185C02E10A0E175C06E30CC0D7
:102E70001BF0C60E1B261B501726FF0E0626072228
:102E80000922300E172617C0E5FF06C0E9FF07C06C
:102E9000F3FF0950B4EC2FF01650E56E1550E56EB7
:102EA0001450E56E1350E56E1250E56E1150E56E4C
:102EB0001050E56E0F50E56E86EC21F00F6EF3CFEB
:102EC00010F0F4CF11F0E9CF12F0080EE126A0D7F0
:102ED00006C003F007C004F009C005F00D5021E062
:102EE0000A5012E00BA210D02D0EE56E0250E56ED6
:102EF0000150E56E0050E56E48EC25F0040EE12629
:102F0000010E0E6E0A060DD0FF0E032604220522C6
:102F10002D0EE56E03C0E9FF04C0F3FF0550B4ECCD
:102F20002FF00B50E56E0A50E56E0550E56E04502B
:102F3000E56E0350E56E0250E56E0150E56E0050FF
:102F4000E56EE1EC1EF0006E080EE1260E50002644
:102F50000050E4CF1BF0E4CF1AF0E4CF19F0E4CF37
:102F600018F0E4CF17F0E4CF16F0E4CF15F0E4CF7B
:102F700014F0E4CF13F0E4CF12F0E4CF11F0E4CF7B
:102F800010F0E4CF0FF0E4CF0EF0E4CF0DF0E4CF7B
:102F90000CF0E4CF0BF0E4CF0AF0E4CF09F0E4CF7B
:102FA00008F0E4CF07F0E4CF06F0E4CF05F0E4CF7B
:102FB00004F0E4CF03F0E4CF02F0E4CF01F0E4CF7B
:102FC00000F0E4CFD9FF1200D9CFE5FFE1CFD9FF60
:102FD00000C0E5FF01C0E5FF02C0E5FF03C0E5FF5B
:102FE00004C0E5FF020EDBCF00F0030EDBCF01F0E3
:102FF0000050E56E93EC2EF0E6526E0E0024026E49
:10300000036A350E0322046A000E042202C0F6FF92
:1030100003C0F7FF04C0F8FF0900F5CF02F0050E6A
:10302000025CD8B0F8D0FA6AFB6A0234FA36E834A7
:10303000FA36FC0B440FE56E300EFA22000EFB222E
:10304000E450F96E2CEF18F059EF18F086EF18F0F5
:10305000B3EF18F0E0EF18F0015015E04A0E00242D
:10306000026E036A350E0322046A000E042202C0B7
:10307000F6FF03C0F7FF04C0F8FF0900F5CF02F028
:1030800002508912C8D04A0E0024026E036A350E1F
:103090000322046A000E042202C0F6FF03C0F7FFF9
:1030A00004C0F8FF0900F5CF02F00250FF088916AE
:1030B000B2D0015015E04A0E0024026E036A350EAC
:1030C0000322046A000E042202C0F6FF03C0F7FFC9
:1030D00004C0F8FF0900F5CF02F002508A129BD01D
:1030E0004A0E0024026E036A350E0322046A000EA3
:1030F000042202C0F6FF03C0F7FF04C0F8FF090076
:10310000F5CF02F00250FF088A1685D0015015E075
:103110004A0E0024026E036A350E0322046A000E72
:10312000042202C0F6FF03C0F7FF04C0F8FF090045
:10313000F5CF02F002508B126ED04A0E0024026EC0
:10314000036A350E0322046A000E042202C0F6FF51
:1031500003C0F7FF04C0F8FF0900F5CF02F00250EA
:10316000FF088B1658D0015015E04A0E0024026E5D
:10317000036A350E0322046A000E042202C0F6FF21
:1031800003C0F7FF04C0F8FF0900F5CF02F00250BA
:103190008C1241D04A0E0024026E036A350E0322BF
:1031A000046A000E042202C0F6FF03C0F7FF04C049
:1031B000F8FF0900F5CF02F00250FF088C162BD063
:1031C000015015E04A0E0024016E026A350E0222FB
:1031D000036A000E032201C0F6FF02C0F7FF03C01E
:1031E000F8FF0900F5CF01F001508D1214D0016AEB
:1031F000026A4A0E0026350E0122000E022200C08D
:10320000F6FF01C0F7FF02C0F8FF0900F5CF00F09C
:103210000050FF088D16E4CF04F0E4CF03F0E4CFB4
:1032200002F0E4CF01F0E4CF00F0E4CFD9FF1200C8
:10323000D9CFE5FFE1CFD9FF00C0E5FF01C0E5FF31
:1032400002C0E5FF03C0E5FF04C0E5FF020EDBCFCF
:1032500000F0030EDBCF01F06E0E0024026E036A55
:10326000350E0322046A000E042202C0F6FF03C0DA
:10327000F7FF04C0F8FF0900F5CF02F0050E025C6D
:10328000D8B0F8D0FA6AFB6A0234FA36E834FA3673
:10329000FC0BA20FE56E320EFA22000EFB22E45068
:1032A000F96E5BEF19F088EF19F0B5EF19F0E2EF66
:1032B00019F00FEF1AF0015015E04A0E0024026ECB
:1032C000036A350E0322046A000E042202C0F6FFD0
:1032D00003C0F7FF04C0F8FF0900F5CF02F0025069
:1032E0009212C8D04A0E0024026E036A350E0322E1
:1032F000046A000E042202C0F6FF03C0F7FF04C0F8
:10330000F8FF0900F5CF02F00250FF089216B2D084
:10331000015015E04A0E0024026E036A350E0322A6
:10332000046A000E042202C0F6FF03C0F7FF04C0C7
:10333000F8FF0900F5CF02F0025093129BD04A0E1D
:103340000024026E036A350E0322046A000E042272
:1033500002C0F6FF03C0F7FF04C0F8FF0900F5CF75
:1033600002F00250FF08931685D0015015E04A0E76
:103370000024026E036A350E0322046A000E042242
:1033800002C0F6FF03C0F7FF04C0F8FF0900F5CF45
:1033900002F0025094126ED04A0E0024026E036AAC
:1033A000350E0322046A000E042202C0F6FF03C099
:1033B000F7FF04C0F8FF0900F5CF02F00250FF0844
:1033C000941658D0015015E04A0E0024026E036A8C
:1033D000350E0322046A000E042202C0F6FF03C069
:1033E000F7FF04C0F8FF0900F5CF02F00250951274
:1033F00041D04A0E0024026E036A350E0322046A8D
:10340000000E042202C0F6FF03C0F7FF04C0F8FF5D
:103410000900F5CF02F00250FF0895162BD001509D
:1034200015E04A0E0024016E026A350E0222036A7C
:10343000000E032201C0F6FF02C0F7FF03C0F8FF31
:103440000900F5CF01F00150961214D0016A026A0A
:103450004A0E0026350E0122000E022200C0F6FFA1
:1034600001C0F7FF02C0F8FF0900F5CF00F00050DF
:10347000FF089616E4CF04F0E4CF03F0E4CF02F0A7
:10348000E4CF01F0E4CF00F0E4CFD9FF1200120145
:10349000000202000040D804ABFE0000010200015F
:1034A00009024300020100C01409040000010202E5
:1034B0000100052400100104240200052406000177
:1034C0000524010001070582031000020904010020
:1034D000020A0000000705030240000007058302FE
:1034E000400000000403090416034A0050002000B5
:1034F0004D0041004E0044004F004E0020001203DA
:10350000500069006E006700750069006E006F0072
:10351000E43400E83400FE34000006030201010137
:103520000101127A000090D0030020A10700404260
:103530000F0080841E0000093D0000127A00002464
:10354000F400286E756C6C2900000102040810203C
:10355000408001020408102040800102040810206D
:10356000408001020408102040800102040801018B
:103570000101010101010000000000000000020241
:10358000020202020202030303030303030304040F
:10359000040470696E4D6F646500494E50555400C7
:1035A0004F5554505554000028002C006469676939
:1035B00074616C577269746500004849474800009F
:1035C0004C4F5700616E616C6F675772697465008C
:1035D0006469676974616C52656164002564000008
:1035E0002900616E616C6F675265616400006565FA
:1035F00070726F6D526561640000656570726F6D09
:1036000057726974650064656C61790064656C610A
:10361000794D6963726F7365636F6E647300446F95
:103620006E650000616C6C4F757470757400616C30
:103630006C496E7075740000616C6C486967680055
:10364000616C6C4C6F770000726573657400E806FE
:10365000E56E090E3AEC1BF0E4500BE000D0E56E8D
:10366000090E3AEC1BF000D0E450000000D0E82E28
:10367000F6D71200E8060000E85007E000D000D0BE
:1036800000D000D00000E82EFAD71200D9CFE5FF15
:10369000E1CFD9FF00C0E5FF01C0E5FF02C0E5FFB3
:1036A00003C0E5FF04C0E5FF05C0E5FF06C0E5FF78
:1036B00007C0E5FF08C0E5FF020EDBCF00F0030EF8
:1036C000DBCF01F0040EDBCF02F0050EDBCF03F001
:1036D000060EDBCF04F0070EDBCF05F00050011023
:1036E000021006E000C03AF701C03BF702C03CF709
:1036F00007013A513B113C1104E1F46AF36AE86AAC
:10370000A8D03AC700F03BC701F03CC702F000C0A8
:10371000E9FF01C0F3FF025023EC2FF0006E0050D0
:1037200028E03AC700F03BC701F03CC702F000C0F8
:10373000E9FF01C0F3FF025023EC2FF0E56E0550C6
:10374000E56E0450E56E0350E56E01EC2BF0006E63
:10375000F3CF01F0F4CF02F0040EE1260050011087
:10376000021007E007013A2BCCE33B3F01D03C2B92
:10377000C8D73AC700F03BC701F03CC702F03AC7D0
:1037800006F03BC707F03CC708F006C0E9FF07C0DA
:10379000F3FF085023EC2FF0066E0650D8B442D049
:1037A0003AC706F03BC707F03CC708F006C0E9FF80
:1037B00007C0F3FF085023EC2FF0E56E0550E56ECF
:1037C0000450E56E0350E56E01EC2BF0066EF3CF6E
:1037D00007F0F4CF08F0040EE12606500710081099
:1037E0001AE03AC706F03BC707F03CC708F0E56AA5
:1037F00006C0E9FF07C0F3FF0850B4EC2FF0070143
:103800003A2B03E33B3F01D03C2B02C0F4FF01C045
:10381000F3FF00501ED007013A2BB1E33B3F01D02C
:103820003C2BADD707013A6B3B6B3C6B00C0E9FF0B
:1038300001C0F3FF025023EC2FF0036E035006E0AB
:1038400002C0F4FF01C0F3FF005003D0F46AF36A32
:10385000E86AE4CF08F0E4CF07F0E4CF06F0E4CF65
:1038600005F0E4CF04F0E4CF03F0E4CF02F0E4CFBE
:1038700001F0E4CF00F0E4CFD9FF1200D9CFE5FF8B
:10388000E1CFD9FF00C0E5FF01C0E5FF02C0E5FFC1
:1038900003C0E5FF04C0E5FF05C0E5FF06C0E5FF86
:1038A00007C0E5FF08C0E5FF09C0E5FF0AC0E5FF66
:1038B000020EDBCF00F0030EDBCF01F0040EDBCFF6
:1038C00002F0036A046A056A00C006F001C007F04E
:1038D00002C008F006C0E9FF07C0F3FF085023EC60
:1038E0002FF0096E09502BE00A6A09BE0A680A50D7
:1038F000800F800F02E13A0E095C07E20A50800F48
:10390000800F02E1300E095C1AE206C0E9FF07C031
:10391000F3FF085023EC2FF0096E0A6A09BE0A680B
:1039200009502D0A02E10A500AE009502B0A02E16F
:103930000A5005E0062A02E3074A082ACBD706C048
:1039400000F007C001F008C002F006C0E9FF07C0A0
:10395000F3FF085023EC2FF0066E076A06BE0768D7
:10396000086A06502D0A03E1075001E1082A0850B1
:1039700002E0010E056E085006E106502B0A02E136
:10398000075001E004D0002A02E3014A022A00C0E5
:10399000E9FF01C0F3FF025023EC2FF0066E065042
:1039A0002EE0076A06BE07680750800F800F02E10D
:1039B000300E065C24E30750800F800F02E13A0EC0
:1039C000065C1DE20450E56E0350E56EE56A0A0EE2
:1039D000E56E17EC2AF0086EF3CF09F0040EE1262D
:1039E000D00E0626D8A0070606500824036E0750FE
:1039F0000920046E002A02E3014A022AC8D70550B2
:103A00000AE0041C016E031C006E004A012A01C07A
:103A1000F3FF005003D004C0F3FF0350E4CF0AF0DB
:103A2000E4CF09F0E4CF08F0E4CF07F0E4CF06F0EC
:103A3000E4CF05F0E4CF04F0E4CF03F0E4CF02F0EC
:103A4000E4CF01F0E4CF00F0E4CFD9FF1200D9CFEA
:103A5000E5FFE1CFD9FF00C0E5FF01C0E5FF02C0EF
:103A6000E5FF03C0E5FF04C0E5FF05C0E5FF06C0B4
:103A7000E5FF07C0E5FF08C0E5FF020EDBCF00F061
:103A8000000E07014C5D02E1400E4B5D05E24BC7A5
:103A900001F04CC702F003D0400E016E026A0044F0
:103AA000FE0B036E0328040DF450036EF3CF00F0F9
:103AB000000E0024046E040E0320056E000E002488
:103AC000066E040E0320076E06C0E9FF07C0EAFF7A
:103AD000EFCF06F0FC0E061604C0E9FF05C0EAFFB2
:103AE00006C0EFFF000E0024046E040E0320056ED6
:103AF000000E0024066E040E0320076E06C0E9FFC8
:103B000007C0EAFFEFCF06F0030E0214061204C04E
:103B1000E9FF05C0EAFF06C0EFFF000E0024046EB7
:103B2000040E0320056E044A052A0150066E04C0E7
:103B3000E9FF05C0EAFF06C0EFFF000E0026040EF5
:103B40000322020E0026D8B0032A400E046E050E92
:103B5000056E00C0E9FF03C0EAFF04C0EEFF05C028
:103B6000EFFF015007014B5F02504C5B050E070150
:103B7000416F400E406F800E426F006A00C003F03C
:103B8000046A0250045C02E10150035C2BE240C76E
:103B900003F041C704F042C705F03DC706F03EC739
:103BA00007F03FC708F006C0E9FF07C0F3FF085061
:103BB00023EC2FF0066E07013D2B03E33E3F01D0BF
:103BC0003F2B06C0E5FF03C0E9FF04C0F3FF05502B
:103BD000B4EC2FF00701402B03E3413F01D0422B0F
:103BE000002ACCD7E4CF08F0E4CF07F0E4CF06F00A
:103BF000E4CF05F0E4CF04F0E4CF03F0E4CF02F02B
:103C0000E4CF01F0E4CF00F0E4CFD9FF1200D9CF28
:103C1000E5FFE1CFD9FF00C0E5FF01C0E5FF02C02D
:103C2000E5FF03C0E5FF020EDBCF00F00050E56EBC
:103C300093EC2EF0E6526E0E0024016E026A350EF1
:103C40000222036A000E032201C0F6FF02C0F7FF42
:103C500003C0F8FF0900F5CF01F0050E015CD8B0F4
:103C6000A4D0FA6AFB6A0134FA36E834FA36FC0B5F
:103C7000800FE56E3C0EFA22000EFB22E450F96E36
:103C80004AEF1EF066EF1EF082EF1EF09EEF1EF070
:103C9000BAEF1EF04A0E0024016E026A350E0222AF
:103CA000036A000E032201C0F6FF02C0F7FF03C043
:103CB000F8FF0900F5CF01F080500116015003E034
:103CC000010E016E01D0016A015070D04A0E00242D
:103CD000016E026A350E0222036A000E032201C041
:103CE000F6FF02C0F7FF03C0F8FF0900F5CF01F0AF
:103CF00081500116015003E0010E016E01D0016AEE
:103D0000015054D04A0E0024016E026A350E022280
:103D1000036A000E032201C0F6FF02C0F7FF03C0D2
:103D2000F8FF0900F5CF01F082500116015003E0C1
:103D3000010E016E01D0016A015038D04A0E0024F4
:103D4000016E026A350E0222036A000E032201C0D0
:103D5000F6FF02C0F7FF03C0F8FF0900F5CF01F03E
:103D600083500116015003E0010E016E01D0016A7B
:103D700001501CD0016A026A4A0E0026350E01224B
:103D8000000E022200C0F6FF01C0F7FF02C0F8FFDC
:103D90000900F5CF00F084500016005003E0010E3A
:103DA000006E01D0006A005001D0E86AE4CF03F051
:103DB000E4CF02F0E4CF01F0E4CF00F0E4CFD9FF8C
:103DC0001200D9CFE5FFE1CFD9FF00C0E5FF01C068
:103DD000E5FF02C0E5FF03C0E5FF04C0E5FF05C045
:103DE000E5FF06C0E5FF07C0E5FF08C0E5FF09C025
:103DF000E5FF0AC0E5FF0BC0E5FF0CC0E5FF0DC005
:103E0000E5FF0EC0E5FF020EDBCF00F0030EDBCFB7
:103E100001F0040EDBCF02F0050EDBCF03F0060E3F
:103E2000DBCF04F0070EDBCF05F0080EDBCF06F08A
:103E3000090EDBCF07F0086A200E096E065022E05B
:103E40000A6A03C00BF004C00CF005C00DF00BC0F3
:103E5000E9FF0CC0F3FF0D5023EC2FF00E6E0E5057
:103E600006E00A2A0B2AF3E30C4A0D2AF0D7065083
:103E70000A5C02E3066A02D00A50065E07A202D07C
:103E8000300E096E07B019D0076A06C00AF00A5052
:103E900005E107C008F00AC006F00FD00950E56E32
:103EA0000250E56E0150E56E0050E56E48EC25F0DD
:103EB000040EE126072A0A06EAD708C007F003C065
:103EC000E9FF04C0F3FF055023EC2FF0086E085003
:103ED00012E00850E56E0250E56E0150E56E0050AC
:103EE000E56E48EC25F0040EE126072A032AE7E3F5
:103EF000044A052AE4D707C003F006C004F00450C2
:103F00000FE00950E56E0250E56E0150E56E00507D
:103F1000E56E48EC25F0040EE126032A0406EFD7EF
:103F2000F36A0350E4CF0EF0E4CF0DF0E4CF0CF0D1
:103F3000E4CF0BF0E4CF0AF0E4CF09F0E4CF08F0CF
:103F4000E4CF07F0E4CF06F0E4CF05F0E4CF04F0CF
:103F5000E4CF03F0E4CF02F0E4CF01F0E4CF00F0CF
:103F6000E4CFD9FF1200D9CFE5FFE1CFD9FF00C0E0
:103F7000E5FF01C0E5FF02C0E5FF03C0E5FF04C0A7
:103F8000E5FF05C0E5FF06C0E5FF07C0E5FF08C087
:103F9000E5FF09C0E5FF0AC0E5FF020EDBCF00F038
:103FA000030EDBCF01F0040EDBCF02F0050EDBCFFA
:103FB00003F0060EDBCF04F0070EDBCF05F0080E92
:103FC000DBCF06F0090EDBCF07F0086A04500510BE
:103FD0000610071005E1E968F468F368E86847D05F
:103FE000096A0750800BE8440A6E0A501BE104502E
:103FF00004260536063607360750035C08E10650EE
:10400000025C05E10550015C02E10450005C06E23F
:10401000D890073206320532043204D0092A09C08A
:1040200008F0DFD70750035C08E10650025C05E1A9
:104030000550015C02E10450005C08E30450005E9E
:104040000550015A0650025A0750035AD8900732B9
:1040500006320532043208C009F008060950E2E1D0
:1040600003C0E9FF02C0F4FF01C0F3FF0050E4CF3A
:104070000AF0E4CF09F0E4CF08F0E4CF07F0E4CF92
:1040800006F0E4CF05F0E4CF04F0E4CF03F0E4CF92
:1040900002F0E4CF01F0E4CF00F0E4CFD9FF12004A
:1040A000D9CFE5FFE1CFD9FF00C0E5FF01C0E5FFB3
:1040B00002C0E5FF03C0E5FF04C0E5FF05C0E5FF62
:1040C00006C0E5FF07C0E5FF08C0E5FF09C0E5FF42
:1040D000020EDBCF00F00044FE0B040DF450026E24
:1040E000F3CF00F0000E0024016E040E0220036ED8
:1040F00001C0E9FF03C0EAFFEFCF01F0030E011694
:104100000150056E046A000E0026040E0222004AC9
:10411000022A00C0E9FF02C0EAFFEFCF00F0016A07
:104120000450001205500112005007014B270150A6
:104130004C23050E07013E6F400E3D6F800E3F6F12
:10414000026A036A0150035C02E10050025C2CE247
:1041500040C704F041C705F042C706F03DC707F06D
:104160003EC708F03FC709F007C0E9FF08C0F3FFEA
:10417000095023EC2FF0076E07013D2B03E33E3F70
:1041800001D03F2B07C0E5FF04C0E9FF05C0F3FFE6
:104190000650B4EC2FF00701402B03E3413F01D060
:1041A000422B024A032ACED7E4CF09F0E4CF08F02D
:1041B000E4CF07F0E4CF06F0E4CF05F0E4CF04F05D
:1041C000E4CF03F0E4CF02F0E4CF01F0E4CF00F05D
:1041D000E4CFD9FF120000C0E5FF01C0E5FF02C037
:1041E000E5FF03C0E5FF04C0E5FF05C0E5FF1F0EC6
:1041F00005010015006E02C501F0005012E10150EA
:10420000010A01E076D0010E0701606F050101513E
:10421000030A04E1010E0701626F6BD00701626BB4
:1042200068D00050020A01E064D00F0E05010415A9
:10423000006E800E0415026E0150D8A45AD00050B2
:10424000D8B457D0010E0701606F040E036E000E44
:10425000016E800E046E0050080DF450056EF3CF11
:1042600000F0005001240701406F05500320416F0A
:10427000E86A05BEE8680420426F025005E0040EBB
:104280004027000E4123422305010151030A10E19A
:1042900040C700F041C701F042C703F0840EE56E4D
:1042A00000C0E9FF01C0F3FF0350B4EC2FF021D0B0
:1042B0000250010A0FE140C700F041C701F042C7B8
:1042C00002F0E56A00C0E9FF01C0F3FF0250B4EC60
:1042D0002FF00FD040C700F041C701F042C702F0F5
:1042E000880EE56E00C0E9FF01C0F3FF0250B4EC98
:1042F0002FF0E4CF05F0E4CF04F0E4CF03F0E4CFF7
:1043000002F0E4CF01F0E4CF00F01200D9CFE5FFD6
:10431000E1CFD9FF00C0E5FF01C0E5FF02C0E5FF26
:1043200003C0E5FF04C0E5FF05C0E5FF06C0E5FFEB
:1043300007C0E5FF08C0E5FF09C0E5FF0AC0E5FFCB
:104340000BC0E5FF0CC0E5FF0DC0E5FF020EDBCFA3
:1043500000F0030EDBCF01F0040EDBCF02F0050E00
:10436000DBCF03F0060EDBCF04F0070EDBCF05F04A
:10437000080EDBCF06F0090EDBCF07F0086A096AEA
:104380000A6A0B6A200E0C6E0350800BE8440D6E17
:10439000005000260136023603360850082609363A
:1043A0000A360B360D50D8A4088007500B5C08E184
:1043B00006500A5C05E10550095C02E10450085C06
:1043C00009E30450085E0550095A06500A5A07507E
:1043D0000B5A00800C040D6E0DC00CF00D50D4E192
:1043E00003C0E9FF02C0F4FF01C0F3FF0050E4CFB7
:1043F0000DF0E4CF0CF0E4CF0BF0E4CF0AF0E4CF03
:1044000009F0E4CF08F0E4CF07F0E4CF06F0E4CF02
:1044100005F0E4CF04F0E4CF03F0E4CF02F0E4CF02
:1044200001F0E4CF00F0E4CFD9FF1200D9CFE5FFCF
:10443000E1CFD9FF00C0E5FF01C0E5FF02C0E5FF05
:1044400003C0E5FF04C0E5FF05C0E5FF06C0E5FFCA
:1044500007C0E5FF08C0E5FF09C0E5FF020EDBCF9E
:1044600000F0030EDBCF01F0040EDBCF02F0036A95
:1044700007016351050A02E0E86A50D00401FE51C9
:1044800002E1E86A4BD0040118BF47D0400E195D25
:10449000D8A019C4E8FF046A04011951045C20E2A1
:1044A00004500024056EE86A0120066EE86A0220C6
:1044B000076E800E0424086E096A050E092208C0E2
:1044C000E9FF09C0EAFFEFCF08F008C0E5FF05C02B
:1044D000E9FF06C0F3FF0750B4EC2FF0042ADCD745
:1044E00004C003F0400E04011815186F006A18BDCF
:1044F000002A0050D880E866D890006A0036005044
:10450000010BE840E840F46E1851BF0BF410186F2F
:10451000400E196F880E1811186F0350E4CF09F080
:10452000E4CF08F0E4CF07F0E4CF06F0E4CF05F0E5
:10453000E4CF04F0E4CF03F0E4CF02F0E4CF01F0E5
:10454000E4CF00F0E4CFD9FF120000C0E5FF01C0C6
:10455000E5FF02C0E5FF03C0E5FF04C0E5FF05C0BD
:10456000E5FF1F0E05010015006E0501406B416B54
:10457000005013E1010E0701606F0701615104E073
:10458000010E05014011406F07016251D8B44CD0B3
:10459000020E05014011406F47D00050010A04E1AE
:1045A000010E0701606F40D00050020A01E03CD0CC
:1045B0000F0E05010415006E800E0415016E010E2C
:1045C0000701606F040E036E000E026E800E046E13
:1045D0000050080DF450056EF3CF00F00050022497
:1045E0000701406F05500320416FE86A05BEE86887
:1045F0000420426F015005E0040E4027000E4123C5
:10460000422340C700F041C701F042C702F000C09A
:10461000E9FF01C0F3FF025023EC2FF0006E00A46D
:1046200003D0010E0501406F070160510BE0050E3C
:1046300007013E6F400E3D6F800E3F6F020E070177
:104640004B6F4C6BE4CF05F0E4CF04F0E4CF03F004
:10465000E4CF02F0E4CF01F0E4CF00F01200D9CFB4
:10466000E5FFE1CFD9FF00C0E5FF01C0E5FF02C0D3
:10467000E5FF03C0E5FF04C0E5FF05C0E5FF06C098
:10468000E5FF07C0E5FF08C0E5FF020EDBCF00F045
:10469000030EDBCF01F0040EDBCF02F0050EDBCF03
:1046A00003F007016351050A02E0E86A4CD00401F7
:1046B000FE5102E1E86A47D004011CBF43D0410E1D
:1046C000035C02E3400E036E046A0350045C1DE2C7
:1046D000C00E0424056E066A050E0622045000244E
:1046E000076EE86A0120086EE86A022007C0E9FF49
:1046F00008C0F3FF23EC2FF0076E05C0E9FF06C0EA
:10470000EAFF07C0EFFF042AE0D704C000F004501E
:1047100004011D6F400E1C151C6F016A1CBD012A8F
:104720000150D880E866D890016A01360150010B2B
:10473000E840E840F46E1C51BF0BF4101C6F880E6B
:104740001C111C6F0050E4CF08F0E4CF07F0E4CF59
:1047500006F0E4CF05F0E4CF04F0E4CF03F0E4CFBB
:1047600002F0E4CF01F0E4CF00F0E4CFD9FF120073
:10477000D9CFE5FFE1CFD9FF00C0E5FF01C0E5FFDC
:1047800002C0E5FF03C0E5FF04C0E5FF05C0E5FF8B
:1047900006C0E5FF07C0E5FF08C0E5FF020EDBCF5E
:1047A00000F0030EDBCF01F0040EDBCF02F0050EAC
:1047B000DBCF03F0060EDBCF04F0070EDBCF05F0F6
:1047C000080EDBCF06F0090EDBCF07F0065007100E
:1047D00003E1F36AE86A3FD0FF0E0626072206507F
:1047E00007101CE000C0E9FF01C0F3FF025023ECFA
:1047F0002FF0086E085012E003C0E9FF04C0F3FF79
:10480000055023EC2FF0081809E1002A02E3014AC1
:10481000022A032A02E3044A052ADED700C0E9FF80
:1048200001C0F3FF025023EC2FF0006E016A00BEBE
:10483000016803C0E9FF04C0F3FF055023EC2FF02B
:10484000036E026A03BE02680350005E0250015A02
:1048500001C0F3FF0050E4CF08F0E4CF07F0E4CF4D
:1048600006F0E4CF05F0E4CF04F0E4CF03F0E4CFAA
:1048700002F0E4CF01F0E4CF00F0E4CFD9FF120062
:10488000D9CFE5FFE1CFD9FF00C0E5FF01C0E5FFCB
:1048900002C0E5FF03C0E5FF04C0E5FF05C0E5FF7A
:1048A00006C0E5FF07C0E5FF08C0E5FF09C0E5FF5A
:1048B0000AC0E5FF020EDBCF00F0030EDBCF01F0F4
:1048C000040EDBCF02F0050EDBCF03F0060EDBCFCC
:1048D00004F0070EDBCF05F000C0E9FF01C0F3FFD5
:1048E000025023EC2FF0066E076A06BE076803C06D
:1048F000E9FF04C0F3FF055023EC2FF0086E08C059
:1049000009F00A6A08BE0A680950065E0A50075A8A
:1049100006C009F007C00AF0065007100BE1085066
:1049200009E0002A02E3014A022A032AD5E3044AE5
:10493000052AD2D7D8800AAED89003E309680A685E
:104940000AD00A50800F800F02E1010E095C03E3D8
:10495000010E096E0A6A0AC0F3FF0950E4CF0AF09B
:10496000E4CF09F0E4CF08F0E4CF07F0E4CF06F09D
:10497000E4CF05F0E4CF04F0E4CF03F0E4CF02F09D
:10498000E4CF01F0E4CF00F0E4CFD9FF120000C083
:10499000E5FF01C0E5FF02C0E5FF03C0E5FF05013B
:1049A0000051800A01E06BD003C500F002C501F0A0
:1049B0000050010A0FE1010E0701606F000E0701B0
:1049C0003F6F340E3E6F8E0E3D6F120E07014B6F20
:1049D0004C6B55D00050020A17E1010E0701606FC1
:1049E000000E07013F6F340E3E6FA00E3D6FA20E0A
:1049F000F66E340EF76E000EF86E0900F5CF4BF729
:104A00000900F5CF4CF73BD00050030A32E1010E0C
:104A10000701606F0150030DF450026EF3CF01F0F7
:104A2000036A100E0126350E0222000E032201C079
:104A3000F6FF02C0F7FF03C0F8FF0900F5CF3DF70E
:104A40000900F5CF3EF70900F5CF3FF73DC701F06C
:104A50003EC702F03FC703F001C0E9FF02C0F3FF09
:104A6000035023EC2FF0016E01C04BF707014C6B94
:104A700006D00050060A03E1010E0701606FE4CF83
:104A800003F0E4CF02F0E4CF01F0E4CF00F0120035
:104A9000D9CFE5FFE1CFD9FF00C0E5FF01C0E5FFB9
:104AA00002C0E5FF03C0E5FF04C0E5FF05C0E5FF68
:104AB00006C0E5FF020EDBCF00F0030EDBCF01F0F6
:104AC000040EDBCF02F0050EDBCF03F00050011027
:104AD000021033E000C0E9FF01C0F3FF025048ECD0
:104AE0002EF0046EF3CF05F0F4CF06F003C0E5FF1F
:104AF00004C0E9FF05C0F3FF0650B4EC2FF000C07E
:104B0000E9FF01C0F3FF025048EC2EF0046EF3CF32
:104B100005F0F4CF06F0042A02E3054A062A04C091
:104B2000E5FF05C0F4FF06C0F6FF00C0E9FF01C0C5
:104B3000F3FF025073EC2FF016D00350E56EF2CF66
:104B4000E5FFF29E0500640EFD6E4B0EFE6E000E3C
:104B5000FF6EE4BEF28E39C7FBFF38C7FAFF0701CC
:104B60003751F96EE652E4CF06F0E4CF05F0E4CF1A
:104B700004F0E4CF03F0E4CF02F0E4CF01F0E4CF9F
:104B800000F0E4CFD9FF120000C0E5FF01C0E5FF4F
:104B900002C0E5FF03C0E5FFD350030B006E0050D9
:104BA00018E1D2A808D0006A6C0E016EDC0E026E0D
:104BB000020E036E06D0006A120E016E7A0E026EAD
:104BC000036A03C0E9FF02C0F4FF01C0F3FF005015
:104BD00043D0D350030B010A06E1E96AF46A800E60
:104BE000F36EE86A39D0D350030B800F7E0F30E3A9
:104BF000D350E838070BE56AE56EE56A040EE56E0A
:104C000017EC2AF0006EF3CF01F0040EE126026AE1
:104C1000220E0026350E0122000E022200C0F6FFF1
:104C200001C0F7FF02C0F8FF0900F5CF00F009004E
:104C3000F5CF01F00900F5CF02F00900F5CF03F040
:104C400003C0E9FF02C0F4FF01C0F3FF005004D02D
:104C5000E96AF46AF36AE86AE4CF03F0E4CF02F0A9
:104C6000E4CF01F0E4CF00F0120000C0E5FF01C581
:104C700000F005010051600BD8A461D00050050A76
:104C800009E1010E0701606F040E0701636F02C5A1
:104C90005BF755D00050060A03E1C7EC24F04FD073
:104CA0000050090A12E1010E0701606F02C564F7A6
:104CB0000701645104E1040E0701636F40D0050E43
:104CC0000701636F37EC2DF03AD00050080A0FE16E
:104CD000010E0701606F070E07013E6F640E3D6F06
:104CE000800E3F6F010E07014B6F4C6B28D00050B8
:104CF00003E1A5EC22F023D00050010A03E00050AC
:104D0000030A03E1EBEC20F01AD000500A0A11E18B
:104D1000010E0701606F0501406B050E07013E6F34
:104D2000400E3D6F800E3F6F010E07014B6F4C6BC5
:104D300006D000500B0A03E1010E0701606FE4CFBB
:104D400000F0120000C0E5FF04010451006E009E57
:104D50000050046F0051006E009E0050006F07016C
:104D6000656B0701606B07015C6B07014B6B4C6B5C
:104D700035EC26F01F0E05010015010A02E17FEC5B
:104D800028F0070160510BE1400E0401016F000E95
:104D9000026F050E036F840E006F046F38D005019B
:104DA00000AF26D007014C510501075D04E1070162
:104DB0004B510501065D04E206C54BF707C54CF7EC
:104DC000000EE56A27EC1DF0E652020E0701656F42
:104DD000400E0401016F000E026F050E036F800E7E
:104DE000006F400E066F050E076FC80E046F0FD0E0
:104DF000010E0701656F0401056BC80E046F400EBC
:104E0000016F400E026F050E036FC80E006F6098B1
:104E1000E4CF00F01200D9CFE5FFE1CFD9FF00C009
:104E2000E5FF01C0E5FF02C0E5FF03C0E5FF04C0E8
:104E3000E5FF05C0E5FF06C0E5FF07C0E5FF08C0C8
:104E4000E5FF09C0E5FF020EDBCF00F0030EDBCF6C
:104E500001F0040EDBCF02F0050EDBCF03F0060EEF
:104E6000DBCF04F0070EDBCF05F000C006F001C079
:104E700007F002C008F003C0E9FF04C0F3FF0550CB
:104E800023EC2FF0096E032A02E3044A052A09C025
:104E9000E5FF06C0E9FF07C0F3FF0850B4EC2FF0B0
:104EA000062A02E3074A082A0950E5E102C0F4FF96
:104EB00001C0F3FF0050E4CF09F0E4CF08F0E4CFE5
:104EC00007F0E4CF06F0E4CF05F0E4CF04F0E4CF40
:104ED00003F0E4CF02F0E4CF01F0E4CF00F0E4CF40
:104EE000D9FF1200D9CFE5FFE1CFD9FF00C0E5FF20
:104EF00001C0E5FF02C0E5FF03C0E5FF04C0E5FF18
:104F000005C0E5FF020EDBCF00F0030EDBCF01F0A2
:104F1000C4EC25F0026EF3CF03F0F4CF04F0E9CF38
:104F200005F0D8900532043203320232D8900532AF
:104F3000043203320232E56A010EE56E860EE56E3A
:104F4000A00EE56E0550E56E0450E56E0350E56E6B
:104F50000250E56E86EC21F0026E080EE12600C0DC
:104F600004F001C005F0FF0E0026012204500510D8
:104F700008E00250046EFD0E0426045027EC1BF0DE
:104F8000EED7E4CF05F0E4CF04F0E4CF03F0E4CFB4
:104F900002F0E4CF01F0E4CF00F0E4CFD9FF12003B
:104FA000D9CFE5FFE1CFD9FF00C0E5FF01C0E5FFA4
:104FB00002C0E5FF03C0E5FF04C0E5FF05C0E5FF53
:104FC00006C0E5FF07C0E5FF020EDBCF00F0030ED1
:104FD000DBCF01F0040EDBCF02F0050EDBCF03F0D8
:104FE0000250046E0350056E066A076A0450F86E9C
:104FF0000150046E0250056E0350066E076A04509D
:10500000F76E0050F66E0900F5CF00F00900F5CFFD
:1050100001F0026A0150046E036A056A005003261B
:105020000550042204C0F3FF0350E4CF07F0E4CF9F
:1050300006F0E4CF05F0E4CF04F0E4CF03F0E4CFD2
:1050400002F0E4CF01F0E4CF00F0E4CFD9FF12008A
:1050500016EEFFF026EEFFF0F86AA68EA69CBF0EB5
:10506000E96E0E0EEA6E0068ED6A0050FDE1A00EDA
:10507000F66E5F0EF76E000EF86E0900F5CF05F0C4
:105080000900F5CF06F034D00900F5CF00F0090093
:10509000F5CF01F00900F5CF02F009000900F5CFC6
:1050A000E9FF0900F5CFEAFF090009000900F5CF83
:1050B00003F00900F5CF04F009000900F6CF07F06E
:1050C000F7CF08F0F8CF09F000C0F6FF01C0F7FFF6
:1050D00002C0F8FF03D00900F5CFEEFF0306FBE2A4
:1050E0000406F9E207C0F6FF08C0F7FF09C0F8FFA1
:1050F0000506CAE20606C8E294EC2DF0FFD700C010
:10510000E5FF600E05010015200A01E049D001C548
:1051100000F0005001E144D00050010A01E140D00C
:105120000050200A07E00050210A13E00050220A34
:105130001FE036D0070E07013E6F2C0E3D6F800E2C
:105140003F6F070E07014B6F4C6B010E0701606F3D
:1051500027D0070E07013E6F2C0E3D6F800E3F6F6C
:10516000070E07014B6F4C6B010E0701606F18D0E3
:1051700005010251030A04E1010E0401FE6F02D091
:105180000401FE6B070E07013E6F240E3D6F800E7B
:105190003F6F080E07014B6F4C6B010E0701606FEC
:1051A000E4CF00F01200D9CFE5FFE1CFD9FF00C076
:1051B000E5FF01C0E5FF02C0E5FF03C0E5FF04C055
:1051C000E5FF05C0E5FF020EDBCF43F7030EDBCFA3
:1051D00044F7040EDBCF45F7050EDBCF00F0060EDB
:1051E000DBCF01F0070EDBCF02F0080EDBCF03F0C0
:1051F000090EDBCF04F00A0EDBCF05F00550E56E9B
:105200000450E56E0350E56E0250E56E0150E56E08
:105210000050E56E800EE56E070EE56E430EE56EFE
:105220002DEC0EF0006E090EE1260050E4CF05F0E3
:10523000E4CF04F0E4CF03F0E4CF02F0E4CF01F0D8
:10524000E4CF00F0E4CFD9FF120000C0E5FF01C0B9
:10525000E5FF02C0E5FF03C0E5FF04C0E5FF05C0B0
:10526000E5FF06C0E5FF07C0E5FFF29EF29C140EC5
:10527000626E0701636B0701626B0701646B010ECD
:10528000006E016A026A036A00C004F001C005F002
:1052900002C006F003C007F0002A04E3012A02E37B
:1052A000024A032A045005100610071009E00701FE
:1052B0006351050A05E0AAEC2EF001EC2DF0E4D7CD
:1052C000A494A384A584F28EF28CE4CF07F0E4CFFB
:1052D00006F0E4CF05F0E4CF04F0E4CF03F0E4CF30
:1052E00002F0E4CF01F0E4CF00F0120000C0E5FFCF
:1052F00061B422D03C0E04010015006E0040E8406D
:105300003F0B0D0A03E1A2EC26F03ED007016551E8
:10531000010A0FE1000EE56A50EC20F0E6520401AC
:1053200000AD03D0880E006F2FD0C80E0401006FAF
:105330002BD090EC2FF028D0006A61B4002A0050E6
:10534000010A22E163500BE107016351040A07E1FE
:1053500002C563FF635003E1030E0701636F07019A
:105360006551020A0FE1000EE56A27EC1DF0E652D6
:10537000040104AD03D0880E046F06D0C80E0401EA
:10538000046F02D090EC2FF0E4CF00F01200D9CFE0
:10539000E5FFE1CFD9FF00C0E5FF01C0E5FF02C096
:1053A000E5FF03C0E5FF04C0E5FF05C0E5FF020E11
:1053B000DBCF37F7030EDBCF38F7040EDBCF39F73F
:1053C000050EDBCF00F0060EDBCF01F0070EDBCFC2
:1053D00002F0080EDBCF03F0090EDBCF04F00A0E5B
:1053E000DBCF05F00550E56E0450E56E0350E56E29
:1053F0000250E56E0150E56E0050E56E000EE56A64
:10540000E56AE56A2DEC0EF0006E090EE12600500B
:10541000E4CF05F0E4CF04F0E4CF03F0E4CF02F0F2
:10542000E4CF01F0E4CF00F0E4CFD9FF1200D9CFF0
:10543000E5FFE1CFD9FF00C0E5FF01C0E5FF02C0F5
:10544000E5FF03C0E5FF020EDBCF00F0030EDBCF6C
:1054500001F0040EDBCF02F0050EDBCF03F00050AD
:105460000701556F0150566F02500701576F0350E7
:10547000586F0701555107015703F4CF01F0F3CFDF
:1054800000F000500701596F01505A6F0701555144
:1054900007015803F3CF00F00701565107015703E6
:1054A000F3CF01F00150002607015A5100260050A9
:1054B0005A6F5AC7F3FF5951E4CF03F0E4CF02F01B
:1054C000E4CF01F0E4CF00F0E4CFD9FF1200D9CF50
:1054D000E5FFE1CFD9FF00C0E5FF01C0E5FF02C055
:1054E000E5FF03C0E5FF020EDBCF00F00D0E005C10
:1054F0000BE3150E005C08E2F30E0024016E01447C
:10550000E844FC0BC26E07D0060E005C04E20044C7
:10551000E844FC0BC26EC280090E006E016A0000F6
:10552000FF0E0026012200500110F9E1C282C2B232
:10553000FED7C4CF00F0016A0050036E026AC3CFE9
:1055400000F0016A0050022601500322C29003C0FD
:10555000F3FF0250E4CF03F0E4CF02F0E4CF01F018
:10556000E4CF00F0E4CFD9FF1200D9CFE5FFE1CFBF
:10557000D9FF00C0E5FF01C0E5FF02C0E5FF03C0A1
:10558000E5FF020EDBCF00F0030EDBCF01F0040ECF
:10559000DBCF02F00050110A17E00050120A25E19B
:1055A0000C0EBD6ED8900230036E0130006ED890A4
:1055B000033200320050BE6E0150006E030E001622
:1055C0000038F00BBD1211D00C0E976ED89002303F
:1055D000036E0130006ED890033200320050906E9E
:1055E000030E01160138F00B97129E92E4CF03F0E0
:1055F000E4CF02F0E4CF01F0E4CF00F0E4CFD9FF34
:105600001200D9CFE5FFE1CFD9FF00C0E5FF01C00F
:10561000E5FF02C0E5FF03C0E5FF04C0E5FF020EA1
:10562000DBCF00F0030EDBCF01F0040EDBCF02F086
:10563000050EDBCF03F000C0E9FF01C0F3FF02500D
:1056400023EC2FF0046E045008E00450031805E02A
:10565000002A02E3014A022AEED700C0E9FF01C096
:10566000F3FF025023EC2FF0031806E102C0F4FF11
:1056700001C0F3FF005003D0F46AF36AE86AE4CF94
:1056800004F0E4CF03F0E4CF02F0E4CF01F0E4CF84
:1056900000F0E4CFD9FF1200D9CFE5FFE1CFD9FF69
:1056A00000C0E5FF01C0E5FF02C0E5FF03C0E5FF64
:1056B00004C0E5FF050ED924006E000EDA20016E4D
:1056C000800E026E030E0026000E01220222020E40
:1056D000D924036E000EDA20046E0250E56E0150EC
:1056E000E56E0050E56E070EDBCFE5FF060EDBCF63
:1056F000E5FF050EDBCFE5FF800EE56E0450E56E9D
:105700000350E56E2DEC0EF0006E090EE126005000
:10571000E4CF04F0E4CF03F0E4CF02F0E4CF01F0F3
:10572000E4CF00F0E4CFD9FF120000C0E5FF01C0D4
:10573000E5FF02C0E5FF03C0E5FF04C0E5FF010E81
:10574000006E016A005001101BE0800EE56E040E31
:10575000E56EC00EE56E16EC22F0026E030EE12639
:10576000C00E0224036E046A040E042203C0E9FF83
:1057700004C0EAFFEF6A0250E5E0006A016AE2D77E
:10578000800EE56E040EE56EC00EE56E800EE56ED1
:10579000040EE56ED50EE56E0BEC27F0060EE12645
:1057A000E4CF04F0E4CF03F0E4CF02F0E4CF01F063
:1057B000E4CF00F01200D9CFE5FFE1CFD9FF00C060
:1057C000E5FF01C0E5FF02C0E5FF020ED924006E2F
:1057D000000EDA20016E800E026E030E0026000E0F
:1057E000012202220250E56E0150E56E0050E56E86
:1057F000040EDBCFE5FF030EDBCFE5FF020EDBCFB0
:10580000E5FF800EE56E040EE56E800EE56ED3ECCE
:1058100028F0006E090EE1260050E56E800EE56E60
:10582000040EE56E800EE56E2FEC23F0040EE126EB
:10583000E4CF02F0E4CF01F0E4CF00F0E4CFD9FFF1
:105840001200D8CFE5FFE0CFE5FFE56EF3CFE5FF2F
:10585000F4CFE5FFE9CFE5FFEACFE5FFFACFE5FFBB
:10586000FBCFE5FFD9CFE5FFE1CFD9FFF6CFE5FFCD
:10587000F7CFE5FFF8CFE5FFF5CFE5FFBFEC2FF061
:10588000E4CFF5FFE4CFF8FFE4CFF7FFE4CFF6FF76
:10589000E4CFD9FFE4CFFBFFE4CFFAFFE4CFEAFF88
:1058A000E4CFE9FFE4CFF4FFE4CFF3FFE450E4CF2B
:1058B000E0FFE4CFD8FF1000D8CFE5FFE0CFE5FF51
:1058C000E56EF3CFE5FFF4CFE5FFE9CFE5FFEACFE3
:1058D000E5FFFACFE5FFFBCFE5FFD9CFE5FFE1CF4D
:1058E000D9FFF6CFE5FFF7CFE5FFF8CFE5FFF5CF1E
:1058F000E5FFE4CFF5FFE4CFF8FFE4CFF7FFE4CF17
:10590000F6FFE4CFD9FFE4CFFBFFE4CFFAFFE4CF0B
:10591000EAFFE4CFE9FFE4CFF4FFE4CFF3FFE45084
:10592000E4CFE0FFE4CFD8FF1000D9CFE5FFE1CF0F
:10593000D9FF00C0E5FF01C0E5FF03C0E5FF04C0DB
:10594000E5FF05C0E5FF020EDBCF00F00050E56E7D
:1059500082EC2FF0016EE652002A0050E56E82ECD8
:105960002FF0006EE6520150046E036A056A005083
:1059700003120550041204C0F3FF0350E4CF05F0F6
:10598000E4CF04F0E4CF03F0E4CF01F0E4CF00F083
:10599000E4CFD9FF1200D9CFE5FFE1CFD9FF00C096
:1059A000E5FF020EDBCF00F007016351050A24E199
:1059B0000401FE5121E004011CBF1ED0005005016E
:1059C000C06F010E04011D6F400E1C151C6F006A94
:1059D0001CBD002A0050D880E866D890006A0036C6
:1059E0000050010BE840E840F46E1C51BF0BF4106E
:1059F0001C6F880E1C111C6FE4CF00F0E4CFD9FFA0
:105A0000120000C0E5FF070163512EE065A403D03A
:105A100064B4D7EC2FF0006A60B2002A0050010A8B
:105A200023E065A003D064B0E7EC2DF065A803D0B7
:105A300064B812EC2FF065AC03D064BC02EC06F045
:105A400065AA03D064BA64EC2FF065A202D064B2F8
:105A50006592030E0701635D07E365A605D064A6A2
:105A600003D076EC29F06596E4CF00F01200070130
:105A70002C6BC20E2D6F010E2E6F2F6B306B316BA6
:105A8000080E326F0701246B256B266B276B286B82
:105A9000296B2A6B2B6B1A0E6C6E1E0E6D6EEA0E46
:105AA0000401166F040E176F400E146F196F800EED
:105AB0001A6F050E1B6F880E186FC00E1E6F050E35
:105AC0001F6F400E1C6F050E0701636F1200D9CFC8
:105AD000E5FFE1CFD9FF00C0E5FF01C0E5FF02C04F
:105AE000E5FF020EDBCF00F0030EDBCF01F0040E6A
:105AF000DBCF02F00250E56E0050E56E29EC2EF08F
:105B0000E652E652002A0150E56E0050E56E29EC9F
:105B10002EF0E652E652E4CF02F0E4CF01F0E4CFFB
:105B200000F0E4CFD9FF1200D0B202D0930ED01211
:105B3000D350030B800F7E0F02E3D3A4FED7D2888D
:105B40009B8E580E006E020E016E00C002F001C066
:105B500003F0FF0E0026012202500310F6E1D6ECFE
:105B60002EF0A9EC2FF025EC29F034EC2FF006EC08
:105B700006F0E6EC2FF00EEC06F0FDD71200D9CFC0
:105B8000E5FFE1CFD9FF00C0E5FF01C0E5FF02C09E
:105B9000E5FF03C0E5FF020EDBCF00F0030EDBCF15
:105BA00001F0026A036A0150035C02E10050025CEA
:105BB00003E2024A032AF7D7E4CF03F0E4CF02F06E
:105BC000E4CF01F0E4CF00F0E4CFD9FF120000C031
:105BD000E5FF676A656A9F0E666E7B0E646E636A98
:105BE000160E6A6E006A65B6002A0050010A02E1CC
:105BF0006596F8D7609890EC2FF00701626B07016B
:105C0000616B0701646B030E0701636FE4CF00F063
:105C10001200E8AE0AD0F3CFEAFFEE50EECFF3FF6A
:105C2000EECFF4FFEECFE9FF1200E8BCDFEF2FF07C
:105C3000E9CFF6FFF3CFF7FFF86E0900F550090042
:105C4000F5CFF3FF0900F5CFF4FF0900F5CFE9FF29
:105C50001200D9CFE5FFE1CFD9FF020EDBCFA9FFBC
:105C6000030EDBCFA8FFA69EA69CA684F29E550E2F
:105C7000A76EAA0EA76EA682A6A202D00000FCD72D
:105C8000E86AA6B6E82AA694F28EE4CFD9FF1200FD
:105C9000E8AE08D0F3CFEAFFEE50EECFF3FFEECF41
:105CA000F4FF1200E8BCDDEF2FF0E9CFF6FFF3CFF1
:105CB000F7FFF86E0900F5500900F5CFF3FF090072
:105CC000F5CFF4FF1200F2CFF6FFF29EA69EA69C3F
:105CD000E9CFA9FFA680A850A92AA680A8CFF3FFE4
:105CE000A92AA680A8CFF4FFA92AA680A8CFEAFFF8
:105CF000F6BEF28E1200F2CFEAFFF29EA69EA69C9E
:105D0000A684E9CFA9FFE4CFA8FFC8EC2FF0F4CF19
:105D1000A8FFC8EC2FF0F6CFA8FFC8EC2FF0A69490
:105D2000EABEF28E1200D9CFE5FFE1CFD9FF00C065
:105D3000E5FF020EDBCF00F00050110A05E0005035
:105D4000120A03E1BD6A01D0976AE4CF00F0E4CF04
:105D5000D9FF120060B606D0606A646A6086010EE0
:105D60000701636F07016351010A09E160BA07D0B7
:105D7000656A646A64806488020E0701636F1200BA
:105D8000E8AE06D0F3CFEAFFEE50EECFF3FF1200FD
:105D9000E8BCDBEF2FF0E9CFF6FFF3CFF7FFF86EAB
:105DA0000900F5500900F5CFF3FF1200896A8A6AED
:105DB0008B6A8C6A8D6A926A936A94909492949496
:105DC000949C949E956A966A806A816A826A836AC4
:105DD000846A1200D9CFE5FFE1CFD9FF00C0E5FF0B
:105DE000020EDBCF00F0005004E00050010A01E198
:105DF000C188E4CF00F0E4CFD9FF1200F2CFF6FF64
:105E0000F29EA69EA69CE9CFA9FFA680A850A92A2B
:105E1000A680A8CFF3FFA92AA680A8CFF4FFF6BEDC
:105E2000F28E1200D9CFE5FFE1CFD9FF64846598E7
:105E30006082A494F290A384F2860300A394F29665
:105E4000E4CFD9FF1200E8AE04D0F3CFEAFFEE5062
:105E50001200E8BC0AEF06F0E9CFF6FFF3CFF7FF38
:105E6000F86E0900F55012002F0E92120F015B130D
:105E70000F015C6B0F015D6B0F015E6B0F015F6BC0
:105E8000C16ABD0EC06E1200F2CFF6FFF29EA69E52
:105E9000A69CE9CFA9FFA680A850A92AA680A8CFD2
:105EA000F3FFF6BEF28E1200F2CFEAFFF29EA69E3C
:105EB000A69CA684E9CFA9FFE4CFA8FFC8EC2FF0E9
:105EC000A694EABEF28E120000C0E5FF006A6AB036
:105ED000002A0050010A03E190EC2FF06A90659AC5
:105EE000E4CF00F01200E8AE09D0F3CFEAFFE4CF30
:105EF000EEFFF4CFEEFFF6CFEEFF1200E8BCE3EFCB
:105F00002FF01200D9CFE5FFE1CFD9FF020EDBCF92
:105F1000A9FFA69EA69CA680A850E4CFD9FF120098
:105F20000701656B400E0401016F000E026F050E44
:105F3000036F880E006F046B1200F2CFF6FFF29E23
:105F4000A69EA69CE9CFA9FFA680A850F6BEF28E19
:105F500012000F015B6B0F015C6B0F015D6B0F019A
:105F60005E6B0F015F6B1200E8AE05D0F3CFEAFF66
:105F7000E4CFEEFF1200E8BCE1EF2FF01200A4A482
:105F800006D0A49401EC2DF0659C6590676A120020
:105F9000550EA76EAA0EA76EA682A6B2FED7A94A74
:105FA0000100CA5F0000FE040000020000006092D1
:105FB00064946594120044EF2FF0FEEF2EF063EF2F
:0E5FC0002EF054EF2FF07BEF2EF000001200B9
:00000001FF
